:020000040800F2
:10000000F00600203D0200084B0200084D020008E7
:100010004F020008510200085302000800000000CF
:100020000000000000000000000000005502000871
:100030005702000800000000590200085B02000897
:100040005D0200085D0200085D0200085D02000814
:100050005D0200085D0200085D0200085D02000804
:100060005D0200085D020008C51100085D0200087D
:100070005D0200085D0200085D0200085D020008E4
:100080005D0200085D0200085D0200085D020008D4
:100090005D0200085D0200085D0200085D020008C4
:1000A0005D0200085D0200085D0200085D020008B4
:1000B0005D020008C58200085D0200085D020008BC
:1000C0005D0200085D0200085D0200085D02000894
:1000D0005D0200084D9700085D0200085D020008FF
:1000E0005D0200085D0200085D0200085D02000874
:1000F0005D0200085D0200085D0200085D02000864
:100100005D020008E57A0008418300085D020008EE
:100110005D0200085D0200085D0200085D02000843
:100120005D0200085D0200085D0200085D02000833
:100130005D0200085D0200085D0200085D02000823
:100140005D0200085D0200085D0200085D02000813
:100150005D0200085D0200085D0200085D02000803
:100160005D0200085D0200085D0200085D020008F3
:100170005D0200085D0200085D0200085D020008E3
:100180005D0200085D02000800F002F800F047F888
:100190000AA090E8000C82448344AAF10107DA45E2
:1001A00001D100F03CF8AFF2090EBAE80F0013F0ED
:1001B000010F18BFFB1A43F00103184718DA0000BB
:1001C00038DA0000103A24BF78C878C1FAD852074C
:1001D00024BF30C830C144BF04680C6070470000C1
:1001E0000023002400250026103A28BF78C1FBD840
:1001F000520728BF30C148BF0B607047642900F028
:10020000AB80782900F0E480732900F02F82002071
:1002100070471FB50AF013FB1FBD10B510BD00F0ED
:100220005FFA1146FFF7F5FF09F0A6FD00F07DFA31
:1002300003B4FFF7F2FF03BC09F091FB0B48016820
:1002400041F4700101600A480047FEE7FEE7FEE75F
:10025000FEE7FEE7FEE7FEE7FEE7FEE7FEE700005B
:1002600004480549034A054B7047000088ED00E04B
:1002700089010008F0020020F0060020F0020020B2
:10028000704700000FB4044910B503AA029800F0AB
:10029000F1F910BC5DF814FB040000202DE9F041D9
:1002A0000E460446002020622046E168884730B3AD
:1002B000252805D0D4E901219047206A401CF2E7A7
:1002C000E168204600278847050018D0A5F14100C5
:1002D000192802D820354FF40067324629462046B7
:1002E0002760FFF78BFF40B1012804D0F61D26F0F0
:1002F00007060836D8E7361DD6E72846DAE7206A2B
:10030000BDE8F08170B50C460546012A05D0287875
:10031000800600D5EA69002302E0012305E05B1CAA
:10032000934202D2E05C0028F9D1A869E618C01A0D
:10033000A861286A184428622846AFF3008004E0C8
:10034000D5E9012114F8010B9047B442F8D32846AF
:10035000AFF3008070BD00002DE9F0410646002497
:1003600010687529314616A510D0AFF3008000281B
:1003700002DA404213A507E031688A0701D512A5C9
:1003800002E0490704D511A5012401E0AFF3008084
:1003900000210A2206F1240709E0B0FBF2FCB0FBC1
:1003A000F2F302FB1C00303078541846491C002838
:1003B000F3D123462A463046BDE8F04100F0EBB8C1
:1003C000000000002D0000002B00000020000000B5
:1003D00070B504460D4621461068AFF300802188B1
:1003E000090502D50F4A7A4402E00E4A7A440E32D9
:1003F000002104F1240305E000F00F060009965DDA
:100400005E54491C0028F7D120780023000704D54A
:10041000702D02D009B1022311322046BDE8704090
:1004200000F0B9B846D7000010B5431C02E010F840
:10043000011B71B18107FAD14FF0013202C88C1A49
:100440008C4314EAC211F9D0C01A0A0603D0C01EA8
:1004500010BDC01A10BD0A0401D0801E10BD0902D3
:10046000FCD0401E10BD4FF000020429C0F01280E5
:1004700010F0030C00F01B80CCF1040CBCF1020F57
:1004800018BF00F8012BA8BF20F8022BA1EB0C012C
:1004900000F00DB85FEAC17C24BF00F8012B00F822
:1004A000012B48BF00F8012B70474FF0000200B548
:1004B000134694469646203922BFA0E80C50A0E887
:1004C0000C50B1F12001BFF4F7AF090728BFA0E835
:1004D0000C5048BF0CC05DF804EB890028BF40F801
:1004E000042B08BF704748BF20F8022B11F0804F43
:1004F00018BF00F8012B70474FF0013C50F8042B57
:1005000051F8043B9A4221D1A2EB0C03934313EA26
:10051000CC1317D150F8042B51F8043B9A4215D153
:10052000A2EB0C03934313EACC130BD150F8042B2A
:1005300051F8043B9A4209D1A2EB0C03934313EA0E
:10054000CC13DBD04FF00000704700BFD01A01BAC7
:10055000B1FA81F101F0180122FA01F0CB40C1F1AA
:100560002001DBB2C0B2C01A2CFA01F3D11A9143B8
:1005700011EAC311E6D17047704770477047704762
:1005800010B500F089F8006810BD10B5044600F001
:1005900083F8046010BD2DE9F0470D469946924658
:1005A000044600F124080168880604D5E06921F0BA
:1005B0001001216000E00120A84201DD471B00E09E
:1005C0000027A1697A1902EB0900081AA0612078B6
:1005D000C00602D42046AFF30080002608E0D4E92C
:1005E00001211AF806009047206A401C761C206200
:1005F0004E45F4DB2078C0060AD52046AFF30080D4
:1006000006E0D4E9012130209047206A401C206296
:10061000381EA7F10107F4DC07E0D4E9012118F83E
:1006200005009047206A401C2062281EA5F10105A4
:10063000F3DC2046AFF300802078000602D50220CC
:10064000BDE8F0870120FBE710B5436913B1AFF3B4
:10065000008001E0FFF756FE012010BD127800F186
:1006600024010A7000224A700122EDE711684FF060
:10067000FF32E9E7074B70B50D467B4400F015F8F3
:100680000446284600F024F810B14FF0FF3070BD4A
:10069000204670BD1B940000004870479002002067
:1006A00001694A1C02610878704700B58FB0CDE936
:1006B00001310021059105497944CDE90310114626
:1006C0006846FFF7EBFD0FB000BD0000E5FFFFFF40
:1006D000007B00F0800070470048704790020020C7
:1006E0007546FFF7F9FFAE4605006946534620F010
:1006F0000700854618B020B5FFF7B2FDBDE82040E1
:100700004FF000064FF000074FF000084FF0000BCD
:1007100021F00701AC46ACE8C009ACE8C009ACE880
:10072000C009ACE8C0098D4670470446AFF30080AD
:100730002046FFF77DFD10B501F0BAFF10BD2DE991
:10074000F04107460C460026002509E0360239191B
:10075000491B491E88B200F008F80644681CC5B25F
:10076000A542F3DB3046BDE8F08170B504460026B3
:1007700002F052F82546E11704EB11610912A0229C
:1007800002EB4101C8B202F013F802F091F8E11750
:1007900004EB11610912A4EB0121C8B202F008F8C0
:1007A00002F086F802F038F8A12002F001F802F019
:1007B0007FF8002001F0C6FF064602F053F83046ED
:1007C00070BD2DE9F04105460E461746002409E0AC
:1007D000E20026FA02F2D1B22A1990B200F006F82D
:1007E000601CC4B2BC42F3DBBDE8F08170B50446C6
:1007F0000E4602F011F82546E11704EB11610912CB
:10080000A02202EB4101C8B201F0D2FF02F050F881
:10081000E11704EB11610912A4EB0121C8B201F048
:10082000C7FF02F045F8304601F0C2FF02F040F881
:1008300002F018F80A2009F0B5F870BD3EB54FF681
:10084000FF7045490880DC231A466E21142002F00F
:10085000A3FADB231A466F21152002F09DFA00202F
:10086000DA231A4670210090162002F0BFFB002008
:100870003A49088010213AA20B46CDE900210290A6
:1008800020227321682007F001FC0020102136A2ED
:100890000B46CDE90021029088228721282007F00D
:1008A000F5FB0020102136A20B46CDE90021029075
:1008B00088229B21282007F0E9FB0020102133A289
:1008C0000B46CDE9002102908822AF21282007F0B5
:1008D000DDFB012032A114233C22CDE90010C3210D
:1008E0005A2000F021FB35E02F4890F8200000F05E
:1008F0008000D8B12C488589C48A5A2D15DD962DE3
:1009000013DAC32C11DDD72C0FDA2848007860B930
:10091000012026490870002021A114233C22CDE9A2
:100920000010C3215A2000F0FFFA13E01F4800789E
:1009300080B101201AA114233C22CDE90010C3216B
:100940005A2000F0F1FA0020184908701849087080
:1009500001203EBDC8E700000A0000200C00002076
:10096000B9D8D3DA00000000C6BDCCA83A53544D24
:100970003332CCBDCBF7D5DFBFAAB7A2B0E50000BC
:10098000D7F7D5DF3AC0EEBFA1B3B100D3CECFB712
:10099000C3FB3ABBB6C0D6CEE5D7D3C6E500000050
:1009A000CDCBB3F6000000002C0000207C0000201E
:1009B000700000201CB50948006840F0200007497D
:1009C00008600220009000230122C1010190044828
:1009D00000F023FE0020034908601CBD30380240AF
:1009E00000140240A082424210B50446012005498D
:1009F0000860204608F0D6FF00200349C1F8A00295
:100A000010BD0000A082424200804242F8B5064676
:100A10000F4606EB4600C0EB4610C41D07EB47002F
:100A2000C0EB471000F12A0501204FF4FC630D22B2
:100A300029460090204606F031FCC82008F0B2FF9D
:100A400001204BF640430D2229460090204606F037
:100A500025FC002028490880ABB204F1080C1FFADD
:100A60008CF2A9B2A4F1080C1FFA8CF002F02AF95A
:100A700005F1080C1FFA8CF3A2B2A5F1080C1FFABD
:100A80008CF1A0B202F01EF9C82008F08BFF012003
:100A90004FF4FC630D2229460090204606F0FEFB31
:100AA000C82008F07FFF01204BF640430D22294665
:100AB0000090204606F0F2FB00200F490880ABB200
:100AC00004F1080C1FFA8CF2A9B2A4F1080C1FFA69
:100AD0008CF002F0F7F805F1080C1FFA8CF3A2B2C3
:100AE000A5F1080C1FFA8CF1A0B202F0EBF8C820B7
:100AF00008F058FFF8BD00000A00002010B50220E1
:100B000008F06CFF10BD000010B500200F49086010
:100B10000F48006820F440000D490860084600684E
:100B200040F480000860FFF7E9FF00200949C1F8A0
:100B3000AC02FFF7E3FF012004490860FFF7DEFF86
:100B400000200549C1F8800210BD000080824042AB
:100B50000014024000804242008040421CB5104810
:100B6000006840F002000E4908600846006840F046
:100B7000200008600120032100230246CDE9001077
:100B80000146084800F049FD0120032100230246E8
:100B9000CDE90010C102044800F03FFD1CBD00007B
:100BA00030380240000402400014024010B500201A
:100BB0000F4908600F48006820F440000D490860A4
:100BC0000846006840F480000860FFF797FF0120A6
:100BD0000949C1F8AC02FFF791FF01200449086000
:100BE000FFF78CFF00200549C1F8800210BD00000E
:100BF0008082404200140240008042420080404215
:100C000070B5054600241548006820F440001349DB
:100C100008600846006808601E2008F0DFFE002615
:100C200011E000200E490860FFF768FF01200D4920
:100C3000C1F880026006040E0B48006808B1601C11
:100C4000C4B2701CC6B2082EEBDB15B9FFF7AEFFBD
:100C500001E0FFF759FF204670BD0000001402407C
:100C600080824042008040422C82424270B504465D
:100C70001348006820F440001149086008460068E5
:100C800040F48000086000200E490860FFF736FF3E
:100C9000002511E0E0090C4908606006040E0120FF
:100CA0000A49C1F88002FFF729FF002005490860C2
:100CB000FFF724FF681CC5B2082DEBDB70BD0000F8
:100CC0000014024080824042AC8242420080404296
:100CD00010B50F48006820F440000D490860084630
:100CE000006840F48000086001200A4908600A4951
:100CF000C1F880021E2008F071FE0020054908603E
:100D0000FFF7FCFE00200449C1F8800210BD00007E
:100D100000140240AC8242420080404210B50D48AF
:100D2000006820F440000B4908600846006840F461
:100D3000800008600120084908601E2008F04EFE6F
:100D400000200649C1F8AC02FFF7D8FE0120044993
:100D5000086010BD00140240808240420080424280
:100D6000AC82424210B500241248006820F44000D2
:100D70001049086008460068086001200E490860B4
:100D80000E49C1F88002FFF7B9FE09E0601CC4B249
:100D9000FA2C03DDFFF7C2FF012010BDFFF7AEFE06
:100DA0000548803800680028F0D10549086000BF78
:100DB000F3E7000000140240AC824242008040424F
:100DC000808240421CB51748006840F00100154978
:100DD00008600846006840F0040008600220032113
:100DE00000231A46CDE9001010210F4800F015FC31
:100DF0000220032100230122CDE9001011460B48F7
:100E000000F00BFC02220421002000F0F3F9022381
:100E10000A221946012006F0C1FB0020044908609F
:100E20001CBD0000303802400000024000080240B3
:100E3000800241422DE9F84304460D460E2C05DCA4
:100E4000002C03DB0E2D01DC002D01DABDE8F88358
:100E50001B4800EB0410405D00B1F7E74BF640483B
:100E600004EB4400C0EB4410C01D86B205EB450006
:100E7000C0EB45102A3087B2012043460D22394687
:100E80000090304606F00AFA00200E49088006F16C
:100E900008018AB2103988B23B46394601F012FF88
:100EA00007F1080083B2103881B23246304601F0B3
:100EB00009FF4FF6FF700349088000BFC6E7000036
:100EC0008F0100200A000020024605E01548016855
:100ED00001F0450000B100E0F8E700BF01F00400B8
:100EE00028B104200F4B1B1D18600320704701F030
:100EF000010020B101200B4B1B1D1860F6E70948CB
:100F000024380068904201D01020EFE740F2FF50F3
:100F1000044B1B1D18600348203800680823184044
:100F2000C0B2E3E7342C01402DE9FE4F04460D46E4
:100F300016461F46DDF830904846FFF775FA8046A2
:100F4000B4F5EF7F07DC002C05DB002D03DB40F25E
:100F50007E20854201DDBDE8FE8F4FF6FF703E49E1
:100F6000088005EB070C1FFA8CF304EB060C1FFA44
:100F70008CF2A9B2A0B201F00FFF0D9898B31F2018
:100F800005EB070CACF1010C1FFA8CF304EB060C1B
:100F9000ACF1010C1FFA8CF205F1010C1FFA8CF177
:100FA00004F1010C00901FFA8CF002F01FF84FF4CE
:100FB00078402A49088000201021A7F1100A0AEB86
:100FC000DA7205EB6202CDE90091029091B2A6EBD4
:100FD000C80B0BEBDB7204EB620290B21023C82249
:100FE00007F054F836E0FFE748F2304005EB070C15
:100FF000ACF1010C1FFA8CF304EB060CACF1010C04
:101000001FFA8CF205F1010C1FFA8CF104F1010CAE
:1010100000901FFA8CF001F0E9FF48F230400F49D0
:10102000088000201021A7F1100A0AEBDA7205EB04
:101030006202921CCDE90091029091B2A6EBC80B1E
:101040000BEBDB7204EB6202921C90B21023C822FD
:1010500007F01CF800BF7EE70A0000200C0000200B
:101060002DE9F84F04460D4616461F460F2C05DCA9
:10107000002C03DB0F2D01DC002D01DABDE8F88F19
:101080002FB1204800EB0410405D00B1F6E7304678
:1010900006EBD0714910A6EB410111B94FF00008E1
:1010A00001E04FF6FF7804EB4400C0EB4410C01D94
:1010B0001FFA80F905EB4500C0EB45102A301FFAF6
:1010C00080FA012043460D2251460090484606F022
:1010D000E5F80D480078012802D16420FFF784FC70
:1010E0000A2008F05FFC07B9C8E708480068401C00
:1010F0000649086008460078024901EB041148558A
:1011000000BFBBE78F0100207100002064000020B9
:1011100038B54BF6404040F2F91340F2C712252192
:101120000090022001F062FF00202549088040F273
:10113000F71340F2C5122721042001F02DFE4FF4D1
:10114000FC734FF4E3722621032001F025FE4FF4D7
:10115000FA734FF4E1722A21072001F01DFE0020EE
:1011600017490880012411E004EB4400C0EB44104F
:101170002A3083B204EB4400C0EB44102A3081B221
:101180004FF4E172072001F09DFD641C102CEBDB95
:10119000012411E004EB4401C1EB4411C91D8AB2E2
:1011A00004EB4401C1EB4411C91D88B24FF4FA733A
:1011B0002A2101F087FD641C102CEBDB38BD0000F8
:1011C0000A00002010B50A2008F0ECFB0648006871
:1011D000012801D107F0FAF9002004490860102025
:1011E0000349086010BD00001002404280024142E5
:1011F000143C0140F0B503460846CD1701EB957548
:10120000AD10A1EB8505AD062C0E2448006840F416
:101210008040224D2860CD1701EB9575AE10204D12
:1012200055F826500F26A640B5430846CE1701EBC9
:101230009676B7101A4E46F82750CD1701EB9575E4
:10124000AE10174D55F8265003FA04F63543CE1765
:1012500001EB9676B710124E46F8275011480068F9
:1012600001258D4028430F4D286002F0010040B158
:101270000C480C30006801258D402843094D0C3581
:10128000286002F0020040B10648083000680125DD
:101290008D402843034D08352860F0BD4438024096
:1012A00008380140003C01400EB53248006840F06B
:1012B0000200304908600846006840F004000860F9
:1012C000012000210B460A46CDE9001002212A48E0
:1012D00000F0A3F90120032100230246CDE900100C
:1012E0004103264800F099F9FFF738FC0020244913
:1012F0000860142008F056FB01202249C1F8B4020E
:10130000322008F04FFB00208DF80800012202A9CE
:1013100000F03AF9012202A9A42000F035F91620C4
:101320008DF80800012202A9802000F02DF90C2080
:101330008DF80800012202A9882000F025F9022278
:1013400002A9A12000F026F89DF8080030280ED14F
:101350009DF8090003280AD19DF809009DF808208E
:1013600000EB022108A0FEF78DFF00200EBD01203A
:10137000FCE7000030380240000402400008024050
:10138000B4024142000041424354502049443A25AE
:10139000780D0A002DE9F04106460F461546FFF785
:1013A00097FC7020FFF762FCFFF7DCFCF0B2FFF760
:1013B0005DFCFFF7D7FCFFF78BFC7120FFF756FCB5
:1013C000FFF7D0FC00240BE0691EA14201D00121EF
:1013D00000E000210846FFF713FC3855601CC4B23A
:1013E000AC42F1DBFFF79AFCBDE8F08171B581B04A
:1013F0000024002661480078401C604908700846B7
:1014000000780A2190FBF1F201FB120018B15B4851
:1014100000780A2867DA012201A90220FFF7BAFF43
:101420009DF8040000F00F0000287ED09DF8040015
:1014300000F00F00062878DA9DF8040000F00F0194
:10144000FF208840C5B2E843C0B240F0C0004C491C
:1014500081F8200000245AE0494890F8200001213A
:10146000A1400840F0B3474931F81400042269460E
:10147000FFF790FF424890F8300000F00100C0B143
:101480009DF801009DF8001001F00F0100EB012014
:101490003B49163121F814009DF803009DF8021015
:1014A00001F00F0100EB012135480C3020F8141039
:1014B0001DE09DF801009DF8001001F00F0100EB08
:1014C0000120C0F5F07081B22D480C3020F81410C6
:1014D0009DF803009DF8021001F00F0100EB0121BF
:1014E000274801E011E020E0163020F814109DF8A4
:1014F000000000F0F000802807D0002120481630BE
:1015000020F814100A3820F81410601CC4B2052CFE
:10151000A2DB01261A48808920B91948C08A08B977
:10152000002001900020154908709DF8040000F08B
:101530001F00D0B9124890F8200000F0800040B1A0
:101540000F4890F8200020F080000D4981F820001D
:101550000BE04FF6FF700A498881C882084690F870
:10156000200000F0E00081F8200004480078F02816
:1015700002DD0A200149087030467CBD28000020A9
:101580002C00002054DA00082DE9F04105460E46F3
:1015900017464FF00008FFF79BFB7020FFF766FB34
:1015A000FFF7E0FBE8B2FFF761FBFFF7DBFB00248E
:1015B0000BE0305DFFF75AFBFFF7D4FB8046B8F134
:1015C000000F00D003E0601CC4B2BC42F1DB00BFDE
:1015D000FFF7A4FB4046BDE8F08130B5CC1000F128
:1015E000200353F824304C07E50E0F24AC40A343EE
:1015F000CD1000F1200444F82530CC1000F1200378
:1016000053F824304C07E40E02FA04F42343CD10BF
:1016100000F1200444F8253030BD2DE9F0470C4698
:10162000DDE90867002100258C4600BF60E04FF02F
:10163000010808FA01F504EA050CAC4557D1D0F8C9
:1016400000804FEA410A4FF0030909FA0AF928EA33
:101650000908C0F80080D0F800804FEA410902FA7A
:1016600009F948EA0908C0F80080012A01D0022AD5
:1016700027D1D0F808804FEA410A4FF0030909FA50
:101680000AF928EA0908C0F80880D0F808804FEA6B
:10169000410906FA09F948EA0908C0F80880D0F8B3
:1016A00004904FF0010808FA01F829EA0809C0F887
:1016B0000490D0F8048003FA01F948EA0908C0F858
:1016C0000480D0F80C804FEA410A4FF0030909FA70
:1016D0000AF928EA0908C0F80C80D0F80C804FEA13
:1016E000410907FA09F948EA0908C0F80C80491CC1
:1016F00010299CD3BDE8F0871FB53C48006840F036
:1017000002003A4908600846006840F0040008609A
:10171000012000210B460A46CDE900100221344881
:10172000FFF77BFF0120032100230246CDE90010D3
:1017300041033048FFF771FFFFF710FA00202E49F0
:1017400008600A2008F02EF901202C49C1F8B402E3
:101750000A2008F027F900200090034602460221E3
:1017600001902348FFF759FF642008F01BF9042279
:1017700002A948F2401000F057F800208DF80C0044
:1017800002A91FA0FEF77EFD20A102A8FEF7B4FE6D
:1017900048BB02208DF80800012202A948F240004F
:1017A00000F0A2F9012202A948F2470000F03CF83B
:1017B0009DF80800602807DA9DF8081015A0FEF7CC
:1017C00061FD012000F062F90A2008F0EBF800202A
:1017D0008DF80800012202A948F2400000F084F9C7
:1017E000002004B010BD0120FBE7000030380240AB
:1017F0000004024000080240B4024142000041429D
:101800004354502049443A25730D0A003931343786
:101810000000000044656661756C74205665723A7C
:1018200025640D0A000000002DE9F04105460F4631
:101830001646FFF74DFA2820FFF718FAFFF792FA3D
:101840002812FFF713FAFFF78DFAE8B2FFF70EFA46
:10185000FFF788FAFFF73CFA2920FFF707FAFFF7AE
:1018600081FA00240BE0711EA14201D0012100E0A9
:1018700000210846FFF7C4F93855601CC4B2B442D1
:10188000F1DBFFF74BFABDE8F081000071B583B0E2
:101890000024002679480078401C784908700846E2
:1018A00000780A2190FBF1F201FB120018B1734895
:1018B00000780A287EDA012203A948F24E10FFF7C9
:1018C000B3FF9DF80C0000F0800068B19DF80C009B
:1018D00000F00F00062807DA00200190012201A97C
:1018E00048F24E1000F000F99DF80C0000F00F00D7
:1018F00000285FD09DF80C0000F00F000628D9DA10
:101900009DF80C0000F00F01FF208840C0B201904C
:101910005B4890F820509DF80400C043C0B240F0EE
:10192000C000574981F82000084681898182C18A18
:10193000C183002446E0524890F820000121A140D4
:10194000084020B34F4931F81400042202A9FFF7E0
:101950006BFF4B4890F8300000F00100C0B19DF8DB
:1019600008009DF8091000EB012081B244481630B0
:1019700020F814109DF80A009DF80B1000EB0120D0
:10198000C0F5487081B23E480C3020F8141017E0C2
:101990009DF808009DF8091000EB012081B238483D
:1019A0000C3020F814109DF80A009DF80B1000EB85
:1019B000012000E036E081B23148163020F81410E2
:1019C000601CC4B2052CB6DB01262D4880892E4947
:1019D0000988884205DC2A48C08A2B494988884200
:1019E0001DDD9DF80C0000F00F0001280ADD2448E1
:1019F000C089234988810846008BC88200201F497E
:101A000008700FE01E48808A1D4988810846C08BF7
:101A1000C88280200390084680F8205002E0002011
:101A2000164908709DF80C0000F08F0080281AD12C
:101A3000134890F8200000F0800040B1104890F862
:101A4000200020F080000E4981F820000BE04FF6C6
:101A5000FF700B498881C882084690F8200000F08A
:101A6000E00081F8200005480078F02802DD0A2017
:101A700002490870304604B070BD00002900002003
:101A80002C00002016DB00086001002038B5054658
:101A9000002400208DF800008DF8015000BF09E0FF
:101AA0009DF800000F49095D0844C0B28DF80000A0
:101AB000601CC4B2B82CF3D39DF80000C043401C96
:101AC000C0B28DF80000B822064948F2470000F085
:101AD0000BF80222694648F2FF0000F005F80020EA
:101AE00038BD00005EDA00082DE9F04104460E46DC
:101AF00017464FF00008FFF7EBF82820FFF7B6F87D
:101B0000FFF730F92012FFF7B1F8FFF72BF9E0B239
:101B1000FFF7ACF8FFF726F900250BE0705DFFF743
:101B2000A5F8FFF71FF98046B8F1000F00D003E0D9
:101B3000681CC5B2BD42F1DB00BFFFF7EFF84046BD
:101B4000BDE8F0810EB507F0DFFC5F49087008467C
:101B50000078012803D00846007802287ED10020B2
:101B60005A4908604FF480715948FEF77CFC002008
:101B700000F092FF0020574908804FF6FF70564949
:101B8000088040F23F13EF220021084601F004F9DB
:101B90004FF49F73EE220121084601F0FDF8222345
:101BA000ED221946022001F08DF84FF4FE73ED226C
:101BB0001946022001F086F82123ED221946022061
:101BC00001F080F840F2FD13ED221946022001F0E9
:101BD00079F84FF47840404908803B480078012864
:101BE0000CD1002018213DA20B46CDE90021029026
:101BF000C8220521482006F049FA0BE000201821F0
:101C00003AA20B46CDE900210290C82205214820C6
:101C100006F03CFAFFF77CFA012038A11923502284
:101C2000CDE9001040F23A210520FFF77DF90120AF
:101C300035A119233022CDE9001040F23A21572076
:101C4000FFF772F9012032A119233022CDE90010EB
:101C500040F23A218920FFF767F900E018E00120FF
:101C60002DA119233122CDE9001040F23A21BB20E9
:101C7000FFF75AF90020182129A21923CDE90021E4
:101C80000290782240F23A21F02006F0FFF919E0A4
:101C90000D480078032808D102E0FFF753FF03E066
:101CA000FEF7CCFD0028F8D10CE0074800780428A6
:101CB00008D102E0FFF746FF03E007F0FBFE002833
:101CC000F8D100BF0EBD00007000002064000020AD
:101CD0008F0100200C0000200A000020C8CBBBFAB6
:101CE000B6D4D5BDCEE5D7D3C6E50000CBABC8CBC7
:101CF000B6D4D5BDCEE5D7D3C6E50000D6D8D0C280
:101D0000BFAACABC00000000BBDAC6E500000000A4
:101D1000B0EFD6FA00000000B7B5BBD80000000055
:101D2000B5B9BCC6CAB13A002DE9FE434FF00A0866
:101D30000020FC490860BDE2002018210223424631
:101D4000CDE9001040F23A214FF4A57005F0F1F909
:101D50000A2007F027FEF3480068632804D1A8F1A1
:101D600001080020EF490860EF4890F8200000F0DB
:101D7000800000287ED0EC488489C58A072C24DDA9
:101D8000B4F5E17F21DA2A2D1FDDB5F5FA7F1CDAE3
:101D9000E649097801290AD1E549086800EBD071C4
:101DA0004910A0EB4101012901D1BDE8FE83E01FEC
:101DB0001D2190FBF1F0DF490860A5F12A001D21EB
:101DC00090FBF1F0DC490860E7E0052C1ADD552CAA
:101DD00018DA40F23A20854214DD40F25320854261
:101DE00010DAD648007868B90120D449087000207C
:101DF000D3A119235022CDE9001040F23A21052049
:101E0000FFF792F8572C1ADD872C18DA40F23A20A7
:101E1000854214DD40F25320854210DAC74800782D
:101E200068B90220C54908700020C8A119233022D2
:101E3000CDE9001040F23A215720FFF775F8892CC0
:101E40001CDDB92C1ADA40F23A20854216DD40F248
:101E50005320854212DAB948007878B90320B7498F
:101E600008700020BBA119233022CDE9001040F2F8
:101E70003A2100E021E08920FFF756F8BB2CA3DDD2
:101E8000EC2CA1DA40F23A2085429DDD40F253204D
:101E9000854299DAA948007800287ED10420A74914
:101EA00008700020ADA119233122CDE9001040F2C5
:101EB0003A21BB20FFF738F86FE0A04800780028EF
:101EC0006BD09E480078012806D0022819D003283C
:101ED00039D004285FD14BE0012099A11923502269
:101EE000CDE9001040F23A210520FFF71DF805F07A
:101EF000B7FD4FF00A080020904908709949087012
:101F00004AE0012091A119233022CDE9001040F2CE
:101F10003A215720FFF708F89248007878B98449A9
:101F2000086800EBD0714910A0EB410129B97F4945
:101F30000978012901D105F0A3FD05F0A1FD0020DC
:101F40007E49087028E0012082A119233022CDE9C2
:101F5000001040F23A218920FEF7E6FF734800782E
:101F6000012801D107F0DEFE00207449087013E05B
:101F700001207AA119233122CDE9001040F23A2143
:101F8000BB20FEF7D1FF00206C490870754908702E
:101F9000FFF7D8FD00E000BF00BF72480078E8BB43
:101FA00062480078012815D15F4890F8200000F0C1
:101FB000800078B95E49096800290BDD5C49086832
:101FC00000EBD0714910A0EB410119B15A495948B1
:101FD00000F096F95748006863490968884205D1BE
:101FE0005548006861490968884229D05049086805
:101FF00000EBD0714910A0EB410119B14FF496707C
:1020000007F0D0FC01234A4802684B480168494860
:102010000068FFF725F80120554900E011E008703D
:102020004448006850490860434800684F490860C8
:10203000414A11783F4A107800F0E0FC49490870A5
:1020400017E1484800780028FAD04648007801286F
:1020500003D044480078022862D14FF6FF7045490A
:102060000880B223DE228A21122000F095FEB123DF
:10207000DD228B21132000F08FFE0020B023DC2214
:102080008C210090142000F0B1FF00203A49088014
:102090004FF478403749088032480078012802D050
:1020A00002283ED10FE00020102134A20B46CDE9DA
:1020B00000210290C8229621682005F0E7FF032046
:1020C0002849087090E01A49086800EBD07149105F
:1020D000A0EB410119B31548007801280FD1002069
:1020E000102128A20B46CDE900210290C82296219A
:1020F000582005F0CBFF6420FEF776FC6FE000204F
:10210000102123A20B46CDE900210290C82296217E
:10211000602005F0BBFF6420FEF766FC5FE03BE05B
:1021200063E060E0780000202C00002070000020B8
:102130006400002080000020840000209100002026
:10214000D6D8D0C2BFAACABC00000000BBDAC6E520
:1021500000000000B0EFD6FA00000000B7B5BBD811
:102160000000000090000020880000208C0000206B
:10217000720000200A0000200C000020BACDC6E545
:1021800000000000C4E3D3AEC1CB21210000000059
:10219000BADAC6E5D3AE00004A48007801280FD16C
:1021A0000020102148A20B46CDE900210290C82250
:1021B0009621582005F06AFF6420FEF715FC0EE01A
:1021C0000020102143A20B46CDE900210290C82235
:1021D0009621602005F05AFF6420FEF705FC0320DD
:1021E0003E49087000E000BF43E03C480078032807
:1021F0003FD10A2007F0D6FB39480068401C384917
:10220000086008460068642820D1FEF781FF002698
:102210001AE0002714E0334800EB0610C05D0028E8
:102220000CDD304800EB061010F80790A9F1010210
:10223000002339463046FEF713FF00BF781CC7B2B3
:102240000F2FE8DB701CC6B20F2EE2DB24480068BB
:10225000C8280DDB24480068E12803D101201F496C
:10226000087002E002201D49087000201C49086027
:1022700000BF1E48007820B14FF00A0800201B491B
:102280000870B8F1000F10D10020102118A20B46E1
:10229000CDE900210290C8229621582005F0F6FED3
:1022A00003200E4908704FF00A0814480068401CCB
:1022B00012490860114800686428FFF63DAD00BF70
:1022C00073E5000070000020C4E3CAE4C1CB212103
:1022D00000000000B0D7C6E5D3AE0000900000209B
:1022E000940000208F010020640000207200002074
:1022F000B3ACCAB1C1CB212100000000780000209E
:102300002DE9FF4104460D46012202A903A805F06C
:1023100085FD06460022694601A805F07FFD0746B7
:10232000BE4209D3039820600298286009A0DDE925
:102330000221FDF7A7FF0AE0BE4208D20198206003
:102340000098286003A0DDE90021FDF79BFFBDE8B0
:10235000FF8100000D0A783A25642020793A25642F
:102360000D0A000070B50546049C0020314E306017
:102370005FE019442244002905DB0E2903DC002A12
:1023800001DB0E2A05DD00202B4E30602948006855
:1023900070BD2A4800EB0110805C28B90120264E50
:1023A000306024480068F3E7244E06EB0116B05C69
:1023B00000EBD0767610A0EB4606AE4233D1012B6F
:1023C00000D114B1581C30B92CB91A480068401C0F
:1023D000184E30602DE00BB9012C02D03BB9601CC7
:1023E00028B914480068401C124E306021E0012BCF
:1023F00001D1012C03D0581C38B9601C28B90D48F4
:102400000068401C0B4E306013E0012B01D1601CB2
:1024100018B1581C68B9012C0BD106480068401C43
:10242000044E306005E00020034E30600148006833
:10243000AEE79EE7680000206C0000208F010020BE
:102440002DE9F74F88B0824600260027002007902C
:1024500006908346002580460120002300905146C7
:10246000DDE9092005F098FC02900020012300908E
:102470005146DDE9092005F08FFC03900120034659
:1024800000905146DDE9092005F086FC0490681EA5
:10249000012300905146DDE9092005F07DFC0590FF
:1024A000A94622E002A850F82900801E072818D269
:1024B000DFE800F014120F0C08060400761C11E08F
:1024C0007F1C0FE00798401C07900BE0012006904E
:1024D00008E04FF0010B05E06D1C03E008F1010876
:1024E00000E000BF00BF09F10109B9F1040FD9DB19
:1024F000069810B144F620643EE0BBF1000F02D014
:1025000043F6982438E0022E02DB43F6982433E0A9
:102510001EB115B143F698242EE0022D02DB43F6DE
:10252000982429E0BBF1000F05D0B8F1020F02DBBF
:1025300041F2883420E01DB117B14FF47A741BE0EA
:10254000012E02D14FF4FA7416E0012D01D1C824F6
:1025500012E0B8F1020F01DB64240DE0022F01DB71
:10256000322409E0B8F1010F01D10A2404E0012F5F
:1025700001D1052400E0012420460BB0BDE8F08F16
:102580002DE9F05F82460F4614462046E21704EB21
:102590005272D2102146E31704EB5373DB10A4EB05
:1025A000C3030BB1012300E000231A44624302F08D
:1025B000FF099AF800600AF1010082460578812E31
:1025C00005DB402D03DBFF2D01D0FF2E0DD14FF099
:1025D000000B06E0002007F8010B0BF1010000F0F2
:1025E000FF0BCB45F6DBBDE8F09F7F2D03DAA5F1AD
:1025F0004000C5B202E0A5F14100C5B2A6F18100DC
:10260000C6B2BE2010FB065000FB09F80C2C04D00B
:10261000102C0CD0182C1ED113E01048D0F8090053
:1026200000EB08014A46384607F010F913E00B4862
:10263000D0F8110000EB08014A46384607F006F9C9
:1026400009E00648D0F8190000EB08014A46384670
:1026500007F0FCF800BF00BF00BFC4E76E01002018
:1026600010B500200F4908600F48006820F4402092
:102670000D4908600846006840F48020086000208A
:102680000A49C1F8A402022007F0A8F9012005496F
:102690000860022007F0A2F900200449C1F8A00256
:1026A00010BD0000A0824042000402400080404271
:1026B0001CB50C48006840F002000A49086001207F
:1026C000022100230246CDE900104FF44071064874
:1026D000FEF7A3FF0120054908600549C1F8A402DF
:1026E0001CBD00003038024000040240A08240427D
:1026F0000080404210B500200F4908600F48006874
:1027000020F440200D4908600846006840F480200D
:10271000086001200A49C1F8A402022007F05EF90E
:10272000012005490860022007F058F900200449FB
:10273000C1F8A00210BD0000A08240420004024087
:102740000080404270B5054600241648006820F419
:10275000402014490860084600680860002616E01A
:10276000002011490860022007F038F901200F49C4
:10277000C1F8A0026006040E0B487C38006808B15E
:10278000601CC4B2012007F029F9701CC6B2082EE3
:10279000E6DB15B9FFF7AEFF01E0FFF761FF20466A
:1027A00070BD000000040240A08240420080404210
:1027B00070B504461548006820F4402013490860AD
:1027C0000846006840F48020086000201049086036
:1027D000002517E0E0090E49091D08606006040E97
:1027E000022007F0FBF801200A49C1F8A0020220EC
:1027F00007F0F4F8002006490860022007F0EEF820
:10280000681CC5B2082DE5DB70BD00000004024065
:10281000A08240420080404210B50F48006820F47A
:1028200040200D4908600846006840F48020086098
:1028300001200A4908600A49C1F8A002042007F0F3
:10284000CDF8002005490860042007F0C7F80020F3
:102850000349C1F8A00210BD00040240A482404216
:102860000080404210B50F48006820F440200D4918
:1028700008600846006840F48020086000200A498B
:1028800008600A49C1F8A402042007F0A7F8012053
:10289000054908600549C1F8A402042007F09EF824
:1028A00010BD000000040240A0824042008040426F
:1028B00010B500241348006820F440201149086036
:1028C00008460068086001200F49086007F086F894
:1028D00001200E49C1F8A00207F080F807E0601C53
:1028E000C4B2FA2C03DDFFF7BDFF012010BD06487E
:1028F000803800680028F2D10349091F086000BF32
:10290000F4E7000000040240A482404200804042FC
:102910002DE9F84306460F4600240025364901EB11
:102920000611C85D00EBD0714910A0EB41040020F6
:102930000090E0B26B1E3A463146FFF713FD804629
:1029400000200090E0B201233A463146FFF70AFD2D
:102950004044451C052D02DB0120BDE8F883012021
:102960000090E0B200233A463146FFF7FBFC804678
:102970004FF0FF300090E0B200233A463146FFF7B7
:10298000F1FC4044451C052D01DB0120E5E7012059
:102990000090E0B24FF0FF333A463146FFF7E2FCD9
:1029A00080464FF0FF300090E0B201233A463146B6
:1029B000FFF7D8FC4044451C052D01DB0120CCE786
:1029C00001200090E0B201233A463146FFF7CAFCED
:1029D00080464FF0FF300090E0B24FF0FF333A46B0
:1029E0003146FFF7BFFC4044451C052D01DB0120AB
:1029F000B3E70020B1E700008F01002070B5044666
:102A00000D4629462046FFF783FF08B1022070BD1E
:102A100003480068E12801D10120F8E70020F6E72B
:102A2000640000201CB51648006840F010001449EE
:102A300008600846006840F001000860012003219A
:102A400000231A46CDE900101C210E48FEF7E5FDD3
:102A50000220032100231A46CDE9001001210A4873
:102A6000FEF7DBFD0120094908600949C1F80C02A5
:102A700006490831086000200649C1F800021CBD63
:102A8000303802400010024000000240080242427A
:102A9000000042420000404270B50446002617483C
:102AA0000588408845431548808846F604018842D9
:102AB00016D112488079012812D100200F4988715F
:102AC0002A2048812B2088810021084604F04CF9F7
:102AD00001200A4988712B2048812A20888103E03F
:102AE0000021084604F040F904F09AFB002602E0B9
:102AF00003480480761CAE42FAD370BD600100200A
:102B00008000006C10B50446002C66D16C498871B9
:102B1000F02008804FF4A07048800846808849F271
:102B2000413188420BD06648808846F604018842CD
:102B300005D06348808845F2103188421AD12C2094
:102B40005F4908812A2048812B2088810846808897
:102B500046F60401884205D05948808845F2103174
:102B6000884206D14FF4A070554908804FF4F070A8
:102B70004880A1E05248808845F21051884210D127
:102B80004FF430504E4908814FF4285048814FF49B
:102B90002C5088814FF4F07008804FF448704880C2
:102BA0008AE04748808841F6631188420DD12C2085
:102BB000434908812B2048812A2088814FF4F070F6
:102BC00008804FF44870488076E022203C49088114
:102BD00020204881212088816EE0012038498871B9
:102BE0004FF4A0700880F02048800846808849F2A1
:102BF0004131884205D03248808845F21031884200
:102C000007D12C202E4908812A2048812B20888139
:102C10003FE02B48808846F60401884207D12C20EB
:102C2000274908812B2048812A20888131E02448C7
:102C3000808845F21051884210D14FF4305020491D
:102C400008814FF4285048814FF42C5088814FF46C
:102C5000487008804FF4F07048801AE01848808867
:102C600041F6631188420DD12C20154908812A2094
:102C700048812B2088814FF4487008804FF4F07011
:102C8000488006E022200E4908812120488120202A
:102C900088810B48808846F60401884205D00848A0
:102CA000808845F21031884206D14FF4F070044913
:102CB00008804FF4A0704880002003F0DFFE10BDB4
:102CC000600100202DE9FF4F84B081468A46002034
:102CD000039002900698A0EB09050798A0EB0A065E
:102CE000CDF80490CDF800A0002D01DD012705E00E
:102CF0000DB9002702E04FF0FF376D42002E02DDD4
:102D00004FF0010806E016B94FF0000802E04FF05E
:102D1000FF387642B54201DD2C4600E034464FF0E4
:102D2000000B21E0009A91B2019A90B200F022F8D3
:102D30000398284403900298304402900398A042DC
:102D400005DD0398001B0390019838440190029818
:102D5000A04205DD0298001B0290009840440090BC
:102D60000BF101001FFA80FB601C8345DADD08B01F
:102D7000BDE8F08F30B504460D462946204603F0E5
:102D8000F3FF04F04DFA024800880249088030BD84
:102D90000A0000208000006CF0B504460D4616467F
:102DA0001F462B46324629462046FFF78BFF3B46FF
:102DB000224629462046FFF785FF3B4632463946E4
:102DC0002046FFF77FFF3B46324629463046FFF755
:102DD00079FFF0BD2DE9F04306460F4690460024EA
:102DE00045460320A0EB48093CE07A1B91B232191A
:102DF00090B2FFF7BFFF3A1B91B2721990B2FFF782
:102E0000B9FF3A1991B2721990B2FFF7B3FF7A196C
:102E100091B2321990B2FFF7ADFF7A1991B2321B1D
:102E200090B2FFF7A7FF3A1991B2721B90B2FFF769
:102E3000A1FF7A1B91B2321B90B2FFF79BFF3A1BA6
:102E400091B2721B90B2FFF795FF641CB9F1000FAD
:102E500003DAA000801D814404E0601B80000A307A
:102E600081446D1EAC42C0DDBDE8F08370B5044600
:102E70000D4616465B48808849F24131884205D0AC
:102E80005848808845F21031884214D15549488904
:102E900004F0BAF9201204F0ABF9E0B204F0A8F99A
:102EA0005049888904F0B0F9281204F0A1F9E8B279
:102EB00004F09EF98CE04B48808845F2105188421E
:102EC00020D14849488904F09FF9201204F090F974
:102ED00044494989491C88B204F096F9E0B204F0EB
:102EE00087F94049888904F08FF9281204F080F9A5
:102EF0003C498989491C88B204F086F9E8B204F09B
:102F000077F965E03748808841F66311884228D117
:102F10003448807920B933480088401E001B84B2B1
:102F20003049488904F070F9201204F061F9E0B2E8
:102F300004F05EF9201204F05BF9E0B204F058F9F5
:102F40002849888904F060F9281204F051F9E8B2A0
:102F500004F04EF9281204F04BF9E8B204F048F9F5
:102F600036E02048808846F6040188421DD11D487D
:102F70008079012804D11B480088401E001B84B2C0
:102F80001849488904F040F9201204F031F9E0B200
:102F900004F02EF91349888904F036F9281204F058
:102FA00027F9E8B204F024F912E00E4880790128EC
:102FB00004D10C480088401E001B84B2094948898E
:102FC000214604F037F907498889294604F032F987
:102FD00004480089044908804FF0D840A0F8806078
:102FE00070BD0000600100207E00006C2DE9FC4FE8
:102FF00005460E4617469846DDF82C9000200190B5
:103000002748808846F60401884229D124488079DF
:10301000012825D1AB46354621480088C01B401EFB
:1030200086B247461E480088A0EB0B00401E1FFAE0
:1030300080F800201A4988712A2048812B20888135
:1030400043463A4631462846CDF80090FFF7CEFF7A
:103050000120134988712B2048812A2088811DE096
:10306000781B401C80B20190344615E0214628466A
:1030700003F07AFE04F0D4F84FF0000A07E04FF0B6
:10308000D840A0F880900AF101001FFA80FA019858
:103090008245F4DB601C84B24445E7DDBDE8FC8F6B
:1030A000600100201CB5FE48006840F07800FC4933
:1030B00008600846006840F002000860F8480830E0
:1030C000006840F00100F649083108600120022143
:1030D00000230246CDE90010C103F248FEF79DFA35
:1030E0000120032100230222CDE900104CF23371AC
:1030F000ED48FEF792FA0120032100230222CDE9D8
:1031000000104FF68071E948FEF787FA012003218D
:1031100000230222CDE900100103E548FEF77DFA05
:103120000120032100230222CDE900100103E14820
:10313000FEF773FA0C220021DB48FEF74EFA0C2250
:103140000121D948FEF749FA0C220421D648FEF79E
:1031500044FA0C220521D448FEF73FFA0C2208213C
:10316000D148FEF73AFA0C220921CF48FEF735FA8A
:103170000C220A21CC48FEF730FA0C220E21CA4854
:10318000FEF72BFA0C220F21C748FEF726FA0C2275
:103190000721C648FEF721FA0C220821C348FEF792
:1031A0001CFA0C220921C148FEF717FA0C220A2149
:1031B000BE48FEF712FA0C220B21BC48FEF70DFAAE
:1031C0000C221146B948FEF708FA0C220D21B74827
:1031D000FEF703FA0C220E21B448FEF7FEF90C228A
:1031E0000F21B248FEF7F9F90C221146B048FEF75C
:1031F000F4F90C221146AF48FEF7EFF900204FF02A
:1032000020418861C861AC4908604FF02040806966
:1032100040F480504FF0204188610846806940F4B6
:10322000804088610846806940F010008861084647
:10323000C069C8610846C06940F00F00C86108460F
:10324000C06940F47050C8619B480068C1F81C0117
:103250000846D0F81C0140F00900C1F81C010846DE
:10326000D0F81C0140F40060C1F81C0108468069D8
:1032700040F001008861322006F094FB012100201B
:1032800003F0D8FF322006F08DFB002003F0BAFBDC
:103290008A49888008468088FF280ADB084680889B
:1032A0004FF6FF71884204D084488088B0F5134FF0
:1032B0007ED1D32003F0A8FF03F09AFB7F498880DA
:1032C00003F096FB7D49888003F092FB7B49888060
:1032D000084680884FF6FF7101EA00207749888010
:1032E00003F086FB7549898808437449888008463D
:1032F000808849F2413188425AD0BF2003F084FFD0
:1033000003F076FB6D49888003F072FB6B4988807F
:1033100003F06EFB6949888003F06AFB6749888087
:10332000084680884FF6FF7101EA002063498880D3
:1033300003F05EFB6149898808436049888008463C
:10334000808846F6040188427AD0D42003F05CFFDE
:1033500003F04EFB5949888003F04AFB57498880A7
:1033600003F046FB55498880084680884FF6FF7178
:1033700001EA00205149888003F03AFB4F498988CF
:1033800008434E4988800846808845F210318842BB
:1033900056D04FF45A4003F037FF03F029FB47495A
:1033A00088804FF45B4003F02FFF03F021FB00E027
:1033B00046E042498880084680884FF6FF7101EA5E
:1033C00000203E4988804FF45C4003F01DFF03F06D
:1033D0000FFB3A4989880843384988800846808825
:1033E000B0F5004F02D145F21050888033488088F4
:1033F00045F21051884223D0A12003F005FF03F0CD
:10340000F7FA2E49888003F0F3FA2C4988800846A1
:1034100080884FF6FF7101EA00202849888003F078
:10342000E7FA264989880843244988800846808825
:1034300045F26171884203D141F663101F498880CB
:103440001E48808849F24131884211D01B4880884B
:1034500045F2103188420BD01848808845F210514F
:10346000884205D01548808841F6631188422ED1E4
:103470001148006820F00F004FF02041C1F81C01F6
:103480000846D0F81C0120F47060C1F81C01084601
:10349000D0F81C0140F00300C1F81C0108460FE001
:1034A0003038024000040240000C0240001002408C
:1034B00000140240001802401C0100A0600100201E
:1034C000D0F81C0140F40070C1F81C0128E0FE484F
:1034D000808846F60401884205D0FB4880884CF27B
:1034E000055188421CD1F948006820F00F004FF0C8
:1034F0002041C1F81C010846D0F81C0120F470607E
:10350000C1F81C010846D0F81C0140F00A00C1F8BF
:103510001C010846D0F81C0140F44060C1F81C01B1
:10352000E9488188EAA0FCF7ADFEE748808849F2C7
:10353000413188427ED1CF2003F066FE002003F0A7
:1035400057FEC12003F054FE302003F051FEED2061
:1035500003F05AFE642003F04BFE032003F048FE04
:10356000122003F045FE812003F042FEE82003F024
:103570004BFE852003F03CFE102003F039FE7A203C
:1035800003F036FECB2003F03FFE392003F030FE7F
:103590002C2003F02DFE002003F02AFE342003F03F
:1035A00027FE022003F024FEF72003F02DFE20204A
:1035B00003F01EFEEA2003F027FE002003F018FEB1
:1035C000002003F015FEC02003F01EFE1B2003F0B8
:1035D0000FFEC12003F018FE012003F009FEC520F4
:1035E00003F012FE302003F003FE302003F000FE53
:1035F000C72003F009FEB72003F0FAFD362003F0E0
:1036000003FE482003F0F4FD3A2003F0FDFD5520B1
:1036100003F0EEFDB12003F0F7FD002003F0E8FD1C
:103620001A2003F0E5FDB62003F0EEFD0A2003F0BA
:10363000DFFD00E097E0A22003F0DAFDF22003F0C6
:10364000E3FD002003F0D4FD262003F0DDFD012082
:1036500003F0CEFDE02003F0D7FD0F2003F0C8FDFE
:103660002A2003F0C5FD282003F0C2FD082003F046
:10367000BFFD0E2003F0BCFD082003F0B9FD54206F
:1036800003F0B6FDA92003F0B3FD432003F0B0FD25
:103690000A2003F0ADFD0F2003F0AAFD002003F087
:1036A000A7FD002003F0A4FD002003F0A1FD0020F1
:1036B00003F09EFDE12003F0A7FD002003F098FD3C
:1036C000152003F095FD172003F092FD072003F06D
:1036D0008FFD112003F08CFD062003F089FD2B20C7
:1036E00003F086FD562003F083FD3C2003F080FDAF
:1036F000052003F07DFD102003F07AFD0F2003F07C
:1037000077FD3F2003F074FD3F2003F071FD0F2093
:1037100003F06EFD2B2003F077FD002003F068FD21
:10372000002003F065FD012003F062FD3F2003F05F
:103730005FFD2A2003F068FD002003F059FD002002
:1037400003F056FD002003F053FDEF2003F050FD81
:10375000112003F059FD782006F024F9292003F008
:1037600053FD03F029B95848808846F60401884281
:103770007ED1112003F048FD142006F013F9D0206B
:1037800003F042FD072003F033FD422003F030FD3B
:103790001D2003F02DFDD12003F036FD002003F0A5
:1037A00027FD1A2003F024FD092003F021FDD2207B
:1037B00003F02AFD012003F01BFD222003F018FD79
:1037C000C02003F021FD102003F012FD3B2003F088
:1037D0000FFD002003F00CFD022003F009FD112075
:1037E00003F006FDC52003F00FFD032003F000FDEC
:1037F000C82003F009FD002003F0FAFC252003F0A7
:10380000F7FC212003F0F4FC052003F0F1FC00207C
:1038100003F0EEFC0A2003F0EBFC652003F0E8FC6B
:10382000252003F0E5FC772003F0E2FC502003F0B4
:10383000DFFC0F2003F0DCFC002003F0D9FCF820B3
:1038400003F0E2FC012003F0D3FCFE2003F0DCFCDB
:10385000002003F0CDFC022003F0CAFC202003F07E
:10386000D3FC362003F0D0FC082003F0C1FC00E0BC
:1038700036E03A2003F0C8FC552003F0B9FC2B20B9
:1038800003F0C2FC002003F0B3FC002003F0B0FC06
:10389000012003F0ADFC3F2003F0AAFC2A2003F036
:1038A000B3FC002003F0A4FC002003F0A1FC0120E5
:1038B00003F09EFCDF2003F09BFC782006F072F8FA
:1038C000292003F0A1FC4CE7600100201C0100A0AE
:1038D000204C43442049443A25780D0A000000005A
:1038E000FE48808845F21031884240F07C87ED2008
:1038F00003F08AFC012003F07BFCFE2003F078FC3F
:10390000EE2003F081FCDE2003F072FC212003F0A6
:103910006FFCF12003F078FC012003F069FCDF204C
:1039200003F072FC102003F063FCC42003F06CFC75
:103930008F2003F05DFCC62003F066FC002003F03E
:1039400057FCE22003F054FCE22003F051FCE2209B
:1039500003F04EFCBF2003F057FCAA2003F048FC04
:10396000B02003F051FC0D2003F042FC002003F0D6
:103970003FFC0D2003F03CFC002003F039FC11203B
:1039800003F036FC002003F033FC192003F030FC78
:10399000002003F02DFC212003F02AFC002003F07E
:1039A00027FC2D2003F024FC002003F021FC3D2007
:1039B00003F01EFC002003F01BFC5D2003F018FC4C
:1039C000002003F015FC5D2003F012FC002003F042
:1039D0000FFCB12003F018FC802003F009FC00204C
:1039E00003F006FC8B2003F003FC002003F000FC36
:1039F000962003F0FDFB002003F0FAFBB22003F059
:103A000003FC002003F0F4FB002003F0F1FB022094
:103A100003F0EEFB002003F0EBFB032003F0E8FBD8
:103A2000002003F0E5FBB32003F0EEFB002003F0E1
:103A3000DFFB002003F0DCFB002003F0D9FB0020BB
:103A400003F0D6FB002003F0D3FB002003F0D0FBF3
:103A5000002003F0CDFB002003F0CAFB002003F0A0
:103A6000C7FB002003F0C4FB002003F0C1FB0020D3
:103A700003F0BEFB002003F0BBFB002003F0B8FB0B
:103A8000002003F0B5FB002003F0B2FB002003F0A0
:103A9000AFFB002003F0ACFB002003F0A9FB0020EB
:103AA00003F0A6FB002003F0A3FB002003F0A0FB23
:103AB000002003F09DFB002003F09AFBB42003F0EC
:103AC000A3FB8B2003F094FB002003F091FB9620D6
:103AD00003F08EFB002003F08BFBA12003F088FB9A
:103AE000002003F085FBB52003F08EFB022003F0DD
:103AF0007FFB002003F07CFB032003F079FB002018
:103B000003F076FB042003F073FB002003F070FB4E
:103B1000B62003F079FB002003F06AFB002003F0DD
:103B200067FBB72003F070FB002003F061FB00206F
:103B300003F05EFB3F2003F05BFB002003F058FB2B
:103B40005E2003F055FB002003F052FB642003F0DD
:103B50004FFB002003F04CFB8C2003F049FB0020BE
:103B600003F046FBAC2003F043FB002003F040FBD6
:103B7000DC2003F03DFB002003F03AFB702003F053
:103B800037FB002003F034FB902003F031FB0020D2
:103B900003F02EFBEB2003F02BFB002003F028FBAF
:103BA000DC2003F025FB002003F022FBB82003F00B
:103BB0002BFB002003F01CFB002003F019FB00206E
:103BC00003F016FB002003F013FB002003F010FBB2
:103BD000002003F00DFB002003F00AFB002003F09F
:103BE00007FBBA2003F010FB242003F001FB0020A8
:103BF00003F0FEFA002003F0FBFA002003F0F8FACD
:103C0000C12003F001FB202003F0F2FA002003F0B2
:103C1000EFFA542003F0ECFA002003F0E9FAFF2059
:103C200003F0E6FA002003F0E3FAC22003F0ECFA16
:103C30000A2003F0DDFA002003F0DAFA042003F092
:103C4000D7FA002003F0D4FAC32003F0DDFA3C20B9
:103C500003F0CEFA002003F0CBFA3A2003F0C8FAC2
:103C6000002003F0C5FA392003F0C2FA002003F067
:103C7000BFFA372003F0BCFA002003F0B9FA3C2069
:103C800003F0B6FA002003F0B3FA362003F0B0FADE
:103C9000002003F0ADFA322003F0AAFA002003F06E
:103CA000A7FA2F2003F0A4FA002003F0A1FA2C2099
:103CB00003F09EFA002003F09BFA292003F098FA03
:103CC000002003F095FA262003F092FA002003F07A
:103CD0008FFA242003F08CFA002001E0600100201C
:103CE00003F086FA242003F083FA002003F080FA20
:103CF000232003F07DFA002003F07AFA3C2003F041
:103D000077FA002003F074FA362003F071FA0020ED
:103D100003F06EFA322003F06BFA002003F068FA29
:103D20002F2003F065FA002003F062FA2C2003F044
:103D30005FFA002003F05CFA292003F059FA002012
:103D400003F056FA262003F053FA002003F050FA4D
:103D5000242003F04DFA002003F04AFA242003F057
:103D600047FA002003F044FA232003F041FA002030
:103D700003F03EFAC42003F047FA622003F038FA59
:103D8000002003F035FA052003F032FA002003F09A
:103D90002FFA842003F02CFA002003F029FAF020F7
:103DA00003F026FA002003F023FA182003F020FA8B
:103DB000002003F01DFAA42003F01AFA002003F0FB
:103DC00017FA182003F014FA002003F011FA50201B
:103DD00003F00EFA002003F00BFA0C2003F008FAAF
:103DE000002003F005FA172003F002FA002003F088
:103DF000FFF9952003F0FCF9002003F0F9F9F32016
:103E000003F0F6F9002003F0F3F9E62003F0F0F9EF
:103E1000002003F0EDF9C52003F0F6F9322003F09D
:103E2000E7F9002003F0E4F9442003F0E1F9002071
:103E300003F0DEF9652003F0DBF9002003F0D8F988
:103E4000762003F0D5F9002003F0D2F9882003F0A2
:103E5000CFF9002003F0CCF9C62003F0D5F92020DB
:103E600003F0C6F9002003F0C3F9172003F0C0F9EE
:103E7000002003F0BDF9012003F0BAF9002003F09F
:103E8000B7F9C72003F0C0F9002003F0B1F9002012
:103E900003F0AEF9002003F0ABF9002003F0A8F91D
:103EA000C82003F0B1F9002003F0A2F9002003F0CC
:103EB0009FF9002003F09CF9002003F099F9C92034
:103EC00003F0A2F9002003F093F9002003F090F929
:103ED000002003F08DF9002003F08AF9002003F0A0
:103EE00087F9002003F084F9002003F081F9002015
:103EF00003F07EF9002003F07BF9002003F078F94D
:103F0000002003F075F9002003F072F9002003F09F
:103F10006FF9002003F06CF9002003F069F900202C
:103F200003F066F9E02003F06FF9162003F060F962
:103F3000002003F05DF91C2003F05AF9002003F083
:103F400057F9212003F054F9002003F051F93620ED
:103F500003F04EF9002003F04BF9462003F048F936
:103F6000002003F045F9522003F042F9002003F04D
:103F70003FF9642003F03CF9002003F039F97A207E
:103F800003F036F9002003F033F98B2003F030F909
:103F9000002003F02DF9992003F02AF9002003F006
:103FA00027F9A82003F024F9002003F021F9B92013
:103FB00003F01EF9002003F01BF9C42003F018F9E8
:103FC000002003F015F9CA2003F012F9002003F0D5
:103FD0000FF9D22003F00CF9002003F009F9D920E1
:103FE00003F006F9002003F003F9E02003F000F9E4
:103FF000002003F0FDF8F32003F0FAF8002003F0AE
:10400000F7F8E12003F000F9162003F0F1F80020A2
:1040100003F0EEF81C2003F0EBF8002003F0E8F8C2
:10402000222003F0E5F8002003F0E2F8362003F048
:10403000DFF8002003F0DCF8452003F0D9F8002079
:1040400003F0D6F8522003F0D3F8002003F0D0F8A4
:10405000642003F0CDF8002003F0CAF87A2003F0C2
:10406000C7F8002003F0C4F88B2003F0C1F800204B
:1040700003F0BEF8992003F0BBF8002003F0B8F875
:10408000A82003F0B5F8002003F0B2F8B92003F03F
:10409000AFF8002003F0ACF8C42003F0A9F800202A
:1040A00003F0A6F8CA2003F0A3F8002003F0A0F85C
:1040B000D22003F09DF8002003F09AF8D82003F0F6
:1040C00097F8002003F094F8E02003F091F8002026
:1040D00003F08EF8F32003F08BF8002003F088F84B
:1040E000E22003F091F8052003F082F8002003F0AD
:1040F0007FF80B2003F07CF8002003F079F81B20F8
:1041000003F076F8002003F073F8342003F070F821
:10411000002003F06DF8442003F06AF8002003F05B
:1041200067F84F2003F064F8002003F061F8612085
:1041300003F05EF8002003F05BF8792003F058F8F4
:10414000002003F055F8882003F052F8002003F017
:104150004FF8972003F04CF8002003F049F8A62010
:1041600003F046F8002003F043F8B72003F040F8CE
:10417000002003F03DF8C22003F03AF8002003F0DD
:1041800037F8C72003F034F8002003F031F8D120CD
:1041900003F02EF8002003F02BF8D62003F028F8C7
:1041A000002003F025F8DD2003F022F8002003F0C2
:1041B0001FF8F32003F01CF8002003F019F8E320A7
:1041C00003F022F8052003F013F8002003F010F8A4
:1041D0000A2003F00DF8002003F00AF81C2003F079
:1041E00007F8002003F004F8332003F001F8002062
:1041F00002F0FEFF442002F0FBFF002002F0F8FF77
:10420000502002F0F5FF002002F0F2FF622002F0E1
:10421000EFFF002002F0ECFF782002F0E9FF002021
:1042200002F0E6FF882002F0E3FF002002F0E0FF4A
:10423000972002F0DDFF002002F0DAFFA62002F056
:10424000D7FF002002F0D4FFB72002F0D1FF0020FA
:1042500002F0CEFFC22002F0CBFF002002F0C8FF28
:10426000C72002F0C5FF002002F0C2FFD12002F0FB
:10427000BFFF002002F0BCFFD52002F0B9FF0020F4
:1042800002F0B6FFDD2002F0B3FF002002F0B0FF25
:10429000F32002F0ADFF002002F0AAFFE42002F0BC
:1042A000B3FF012002F0A4FF002002F0A1FF0120D3
:1042B00002F09EFF002002F09BFF022002F098FF18
:1042C000002002F095FF2A2002F092FF002002F069
:1042D0008FFF3C2002F08CFF002002F089FF4B2072
:1042E00002F086FF002002F083FF5D2002F080FFD5
:1042F000002002F07DFF742002F07AFF002002F01F
:1043000077FF842002F074FF002002F071FF9320F9
:1043100002F06EFF002002F06BFFA22002F068FFA7
:10432000002002F065FFB32002F062FF002002F0DF
:104330005FFFBE2002F05CFF002002F059FFC420A6
:1043400002F056FF002002F053FFCD2002F050FF94
:10435000002002F04DFFD32002F04AFF002002F0BF
:1043600047FFDD2002F044FF002002F041FFF32070
:1043700002F03EFF002002F03BFFE52002F044FF88
:10438000002002F035FF002002F032FF002002F092
:104390002FFF002002F02CFF022002F029FF002056
:1043A00002F026FF292002F023FF002002F020FF68
:1043B0003C2002F01DFF002002F01AFF4B2002F00B
:1043C00017FF002002F014FF5D2002F011FF002013
:1043D00002F00EFF742002F00BFF002002F008FF35
:1043E000842002F005FF002002F002FF932002F07B
:1043F000FFFE002002F0FCFEA22002F0F9FE0020E9
:1044000002F0F6FEB32002F0F3FE002002F0F0FE10
:10441000BE2002F0EDFE002002F0EAFEC42002F011
:10442000E7FE002002F0E4FECD2002F0E1FE0020D5
:1044300002F0DEFED32002F0DBFE002002F0D8FE08
:10444000DC2002F0D5FE002002F0D2FEF32002F0C4
:10445000CFFE002002F0CCFEE62002F0D5FE1120B7
:1044600002F0C6FE002002F0C3FE342002F0C0FEBF
:10447000002002F0BDFE562002F0BAFE002002F03D
:10448000B7FE762002F0B4FE002002F0B1FE7720E5
:1044900002F0AEFE002002F0ABFE662002F0A8FEA5
:1044A000002002F0A5FE882002F0A2FE002002F00B
:1044B0009FFE992002F09CFE002002F099FEBB2096
:1044C00002F096FE002002F093FE992002F090FE8A
:1044D000002002F08DFE662002F08AFE002002F02D
:1044E00087FE552002F084FE002002F081FE552058
:1044F00002F07EFE002002F07BFE452002F078FEF6
:10450000002002F075FE432002F072FE002002F04F
:104510006FFE442002F06CFE002002F069FEE720EE
:1045200002F072FE322002F063FE002002F060FE14
:10453000552002F05DFE002002F05AFE762002F0C7
:1045400057FE002002F054FE662002F051FE0020CB
:1045500002F04EFE672002F04BFE002002F048FE03
:10456000672002F045FE002002F042FE872002F0A4
:104570003FFE002002F03CFE992002F039FE0020B0
:1045800002F036FEBB2002F033FE002002F030FEC7
:10459000992002F02DFE002002F02AFE772002F082
:1045A00027FE002002F024FE442002F021FE00201D
:1045B00002F01EFE562002F01BFE002002F018FE44
:1045C000232002F015FE002002F012FE332002F03C
:1045D0000FFE002002F00CFE452002F009FE002034
:1045E00002F006FEE82002F00FFE002002F000FEBE
:1045F000002002F0FDFD992002F0FAFD002002F0FB
:10460000F7FD872002F0F4FD002002F0F1FD882084
:1046100002F0EEFD002002F0EBFD772002F0E8FD55
:10462000002002F0E5FD662002F0E2FD002002F02D
:10463000DFFD882002F0DCFD002002F0D9FDAA2079
:1046400002F0D6FD002002F0D3FDBB2002F0D0FD29
:10465000002002F0CDFD992002F0CAFD002002F0FA
:10466000C7FD662002F0C4FD002002F0C1FD552008
:1046700002F0BEFD002002F0BBFD552002F0B8FDA7
:10468000002002F0B5FD442002F0B2FD002002F04F
:10469000AFFD442002F0ACFD002002F0A9FD552042
:1046A00002F0A6FD002002F0A3FDE92002F0ACFD1F
:1046B000AA2002F09DFD002002F09AFD002002F0E9
:1046C00097FD002002F094FD002002F09DFDAA203D
:1046D00002F08EFDCF2002F097FD002002F088FD51
:1046E000002002F085FD002002F082FD002002F093
:1046F0007FFD002002F07CFD002002F079FD00200B
:1047000002F076FD002002F073FD002002F070FD43
:10471000002002F06DFD002002F06AFD002002F092
:1047200067FD002002F064FD002002F061FD002022
:1047300002F05EFD002002F05BFD002002F058FD5B
:10474000F02002F061FD002002F052FD502002F046
:104750004FFD002002F04CFD002002F049FD00203A
:1047600002F046FDF32002F04FFD002002F040FD74
:10477000F92002F049FD062002F03AFD102002F077
:1047800037FD292002F034FD002002F031FD3A20EF
:1047900002F03AFD552002F02BFD112002F034FD0D
:1047A000642005F0FFF8292002F02EFD352002F0EC
:1047B0002BFD002002F01CFD512002F025FDFF2002
:1047C00002F016FD532002F01FFD2C2002F010FD18
:1047D000552002F019FD822002F00AFD2C2002F083
:1047E00013FD02F0E9B8FE48808845F21051884276
:1047F0007ED155214FF4704002F01CFDAA214FF2EA
:10480000010002F017FD52214FF2020002F012FDEA
:1048100008214FF2030002F00DFD01214FF20400C8
:1048200002F008FD0D214FF4304002F003FD0D2190
:104830004BF2010002F0FEFC0D214BF2020002F0EF
:10484000F9FC34214FF4364002F0F4FC34214BF2F1
:10485000016002F0EFFC34214BF2026002F0EAFC4E
:104860000D214FF4314002F0E5FC0D214BF2011017
:1048700002F0E0FC0D214BF2021002F0DBFC3421CF
:104880004FF4374002F0D6FC34214BF2017002F0B5
:10489000D1FC34214BF2027002F0CCFC00214FF429
:1048A000324002F0C7FC00214BF2012002F0C2FCB2
:1048B00000214BF2022002F0BDFC24214FF43840CD
:1048C00002F0B8FC24214BF6010002F0B3FC2421D5
:1048D0004BF6020002F0AEFC01214FF43F4002F023
:1048E000A9FC0F214FF4334002F0A4FC0F2100E09B
:1048F000FEE34BF2013002F09DFC0F214BF202303F
:1049000002F098FC34214FF4394002F093FC34213A
:104910004BF6011002F08EFC34214BF6021002F02F
:1049200089FC08214FF4354002F084FC08214BF249
:10493000015002F07FFC08214BF2025002F07AFC99
:1049400003214FF4424002F075FC24214FF43A4019
:1049500002F070FC24214BF6012002F06BFC2421B4
:104960004BF6022002F066FC00214FF43C4002F0BE
:1049700061FC78214BF6014002F05CFC00214BF613
:10498000024002F057FC00214FF43D4002F052FC7F
:1049900078214BF6015002F04DFC00214BF60250FD
:1049A00002F048FC00214FF43E4002F043FC642139
:1049B0004BF6016002F03EFC00214FF4514002F042
:1049C00039FC33214DF2011002F034FC00214DF28C
:1049D000021002F02FFC34214DF2031002F02AFCE9
:1049E00000214DF2041002F025FC3A214DF2051091
:1049F00002F020FC00214DF2061002F01BFC4A21BF
:104A00004DF2071002F016FC00214DF2081002F0E2
:104A100011FC5C214DF2091002F00CFC00214DF25A
:104A20000A1002F007FC81214DF20B1002F002FC8B
:104A300000214DF20C1002F0FDFBA6214DF20D10ED
:104A400002F0F8FB00214DF20E1002F0F3FBE5211D
:104A50004DF20F1002F0EEFB01214DF2101002F0AA
:104A6000E9FB13214DF2111002F0E4FB01214DF29C
:104A7000121002F0DFFB54214DF2131002F0DAFBAA
:104A800001214DF2141002F0D5FB82214DF21510D8
:104A900002F0D0FB01214DF2161002F0CBFBCA212F
:104AA0004DF2171002F0C6FB02214DF2181002F071
:104AB000C1FB00214DF2191002F0BCFB02214DF2A6
:104AC0001A1002F0B7FB01214DF21B1002F0B2FBED
:104AD00002214DF21C1002F0ADFB34214DF21D10ED
:104AE00002F0A8FB02214DF21E1002F0A3FB672189
:104AF0004DF21F1002F09EFB02214DF2201002F039
:104B000099FB84214DF2211002F094FB02214DF219
:104B1000221002F08FFBA4214DF2231002F08AFB39
:104B200002214DF2241002F085FBB7214DF2251031
:104B300002F080FB02214DF2261002F07BFBCF2118
:104B40004DF2271002F076FB02214DF2281002F000
:104B500071FBDE214DF2291002F06CFB02214DF2B7
:104B60002A1002F067FBF2214DF22B1002F062FBDB
:104B700002214DF22C1002F05DFBFE214DF22D10B2
:104B800002F058FB03214DF22E1002F053FB1021CE
:104B90004DF22F1002F04EFB03214DF2301002F0C7
:104BA00049FB33214DF2311002F044FB03214DF259
:104BB000321002F03FFB6D214DF2331002F03AFB50
:104BC00000214FF4524002F035FB33214DF2012019
:104BD00002F030FB00214DF2022002F02BFB01E03D
:104BE0006001002034214DF2032002F023FB00215C
:104BF0004DF2042002F01EFB3A214DF2052002F096
:104C000019FB00214DF2062002F014FB4A214DF25F
:104C1000072002F00FFB00214DF2082002F00AFBF2
:104C20005C214DF2092002F005FB00214DF20A2023
:104C300002F000FB81214DF20B2002F0FBFA002173
:104C40004DF20C2002F0F6FAA6214DF20D2002F0F2
:104C5000F1FA00214DF20E2002F0ECFAE5214DF2BE
:104C60000F2002F0E7FA01214DF2102002F0E2FAE3
:104C700013214DF2112002F0DDFA01214DF2122034
:104C800002F0D8FA54214DF2132002F0D3FA012198
:104C90004DF2142002F0CEFA82214DF2152002F0DE
:104CA000C9FA01214DF2162002F0C4FACA214DF2D0
:104CB000172002F0BFFA02214DF2182002F0BAFAD2
:104CC00000214DF2192002F0B5FA02214DF21A200E
:104CD00002F0B0FA01214DF21B2002F0ABFA0221E2
:104CE0004DF21C2002F0A6FA34214DF21D2002F0F4
:104CF000A1FA02214DF21E2002F09CFA67214DF22A
:104D00001F2002F097FA02214DF2202002F092FAC1
:104D100084214DF2212002F08DFA02214DF2222051
:104D200002F088FAA4214DF2232002F083FA022136
:104D30004DF2242002F07EFAB7214DF2252002F038
:104D400079FA02214DF2262002F074FACF214DF2B9
:104D5000272002F06FFA02214DF2282002F06AFAB1
:104D6000DE214DF2292002F065FA02214DF22A20BF
:104D700002F060FAF2214DF22B2002F05BFA0221E0
:104D80004DF22C2002F056FAFE214DF22D2002F0B9
:104D900051FA03214DF22E2002F04CFA10214DF26F
:104DA0002F2002F047FA03214DF2302002F042FAA0
:104DB00033214DF2312002F03DFA03214DF2322031
:104DC00002F038FA6D214DF2332002F033FA00215F
:104DD0004FF4534002F02EFA33214DF2013002F02D
:104DE00029FA00214DF2023002F024FA34214DF26A
:104DF000033002F01FFA00214DF2043002F01AFADB
:104E00003A214DF2053002F015FA00214DF206303C
:104E100002F010FA4A214DF2073002F00BFA00219D
:104E20004DF2083002F006FA5C214DF2093002F032
:104E300001FA00214DF20A3002F0FCF981214DF215
:104E40000B3002F0F7F900214DF20C3002F0F2F9CC
:104E5000A6214DF20D3002F0EDF900214DF20E3099
:104E600002F0E8F9E5214DF20F3002F0E3F90121FB
:104E70004DF2103002F0DEF913214DF2113002F044
:104E8000D9F901214DF2123002F0D4F954214DF23A
:104E9000133002F0CFF901214DF2143002F0CAF9BB
:104EA00082214DF2153002F0C5F901214DF2163084
:104EB00002F0C0F9CA214DF2173002F0BBF902210D
:104EC0004DF2183002F0B6F900214DF2193002F01F
:104ED000B1F902214DF21A3002F0ACF901214DF284
:104EE0001B3002F0A7F902214DF21C3002F0A2F9AA
:104EF00034214DF21D3002F09DF902214DF21E3099
:104F000002F098F967214DF21F3002F093F9022167
:104F10004DF2203002F08EF984214DF2213002F062
:104F200089F902214DF2223002F084F9A4214DF2D8
:104F3000233002F07FF902214DF2243002F07AF999
:104F4000B7214DF2253002F075F902214DF22630DD
:104F500002F070F9CF214DF2273002F06BF90221F7
:104F60004DF2283002F066F9DE214DF2293002F0D0
:104F700061F902214DF22A3002F05CF9F2214DF282
:104F80002B3002F057F902214DF22C3002F052F989
:104F9000FE214DF22D3002F04DF903214DF22E305D
:104FA00002F048F910214DF22F3002F043F90321AD
:104FB0004DF2303002F03EF933214DF2313002F043
:104FC00039F903214DF2323002F034F96D214DF2FE
:104FD000333002F02FF900214FF4544002F02AF947
:104FE00033214DF2014002F025F900214DF202403B
:104FF00002F020F934214DF2034002F01BF90021A8
:105000004DF2044002F016F93A214DF2054002F04B
:1050100011F900214DF2064002F00CF94A214DF23F
:10502000074002F007F900214DF2084002F002F9B2
:105030005C214DF2094002F0FDF800214DF20A40DA
:1050400002F0F8F881214DF20B4002F0F3F8002154
:105050004DF20C4002F0EEF8A6214DF20D4002F0A8
:10506000E9F800214DF20E4002F0E4F8E5214DF29E
:105070000F4002F0DFF801214DF2104002F0DAF8A3
:1050800013214DF2114002F0D5F801214DF21240EA
:1050900002F0D0F854214DF2134002F0CBF8012178
:1050A0004DF2144002F0C6F882214DF2154002F094
:1050B000C1F801214DF2164002F0BCF8CA214DF2B0
:1050C000174002F0B7F802214DF2184002F0B2F892
:1050D00000214DF2194002F0ADF802214DF21A40C4
:1050E00002F0A8F801214DF21B4002F0A3F800E005
:1050F00004E302214DF21C4002F09CF834214DF2F1
:105100001D4002F097F802214DF21E4002F092F885
:1051100067214DF21F4002F08DF802214DF2204030
:1051200002F088F884214DF2214002F083F8022138
:105130004DF2224002F07EF8A4214DF2234002F00D
:1051400079F802214DF2244002F074F8B7214DF2B3
:10515000254002F06FF802214DF2264002F06AF875
:10516000CF214DF2274002F065F802214DF2284090
:1051700002F060F8DE214DF2294002F05BF80221D6
:105180004DF22A4002F056F8F2214DF22B4002F087
:1051900051F802214DF22C4002F04CF8FE214DF264
:1051A0002D4002F047F803214DF22E4002F042F864
:1051B00010214DF22F4002F03DF803214DF2304016
:1051C00002F038F833214DF2314002F033F8032178
:1051D0004DF2324002F02EF86D214DF2334002F0D4
:1051E00029F800214FF4554002F024F833214DF204
:1051F000015002F01FF800214DF2025002F01AF89F
:1052000034214DF2035002F015F800214DF2045004
:1052100002F010F83A214DF2055002F00BF800218F
:105220004DF2065002F006F84A214DF2075002F006
:1052300001F800214DF2085001F0FCFF5C214DF215
:10524000095001F0F7FF00214DF20A5001F0F2FF82
:1052500081214DF20B5001F0EDFF00214DF20C5079
:1052600001F0E8FFA6214DF20D5001F0E3FF00210F
:105270004DF20E5001F0DEFFE5214DF20F5001F02E
:10528000D9FF01214DF2105001F0D4FF13214DF24E
:10529000115001F0CFFF01214DF2125001F0CAFF71
:1052A00054214DF2135001F0C5FF01214DF214506D
:1052B00001F0C0FF82214DF2155001F0BBFF01212A
:1052C0004DF2165001F0B6FFCA214DF2175001F011
:1052D000B1FF02214DF2185001F0ACFF00214DF258
:1052E000195001F0A7FF02214DF21A5001F0A2FF60
:1052F00001214DF21B5001F09DFF02214DF21C5087
:1053000001F098FF34214DF21D5001F093FF02216E
:105310004DF21E5001F08EFF67214DF21F5001F03B
:1053200089FF02214DF2205001F084FF84214DF2CB
:10533000215001F07FFF02214DF2225001F07AFF4F
:10534000A4214DF2235001F075FF02214DF22450AB
:1053500001F070FFB7214DF2255001F06BFF0221E3
:105360004DF2265001F066FFCF214DF2275001F09B
:1053700061FF02214DF2285001F05CFFDE214DF269
:10538000295001F057FF02214DF22A5001F052FF3F
:10539000F2214DF22B5001F04DFF02214DF22C5025
:1053A00001F048FFFE214DF22D5001F043FF032193
:1053B0004DF22E5001F03EFF10214DF22F5001F022
:1053C00039FF03214DF2305001F034FF33214DF20B
:1053D000315001F02FFF03214DF2325001F02AFF2E
:1053E0006D214DF2335001F025FF00214FF456405E
:1053F00001F020FF33214DF2016001F01BFF00217D
:105400004DF2026001F016FF34214DF2036001F00D
:1054100011FF00214DF2046001F00CFF3A214DF222
:10542000056001F007FF00214DF2066001F002FF68
:105430004A214DF2076001F0FDFE00214DF20860A7
:1054400001F0F8FE5C214DF2096001F0F3FE00214D
:105450004DF20A6001F0EEFE81214DF20B6001F089
:10546000E9FE00214DF20C6001F0E4FEA6214DF2B0
:105470000D6001F0DFFE00214DF20E6001F0DAFE5A
:10548000E5214DF20F6001F0D5FE01214DF21060D3
:1054900001F0D0FE13214DF2116001F0CBFE01218D
:1054A0004DF2126001F0C6FE54214DF2136001F07E
:1054B000C1FE01214DF2146001F0BCFE82214DF2CB
:1054C000156001F0B7FE01214DF2166001F0B2FE49
:1054D000CA214DF2176001F0ADFE02214DF21860B5
:1054E00001F0A8FE00214DF2196001F0A3FE022197
:1054F0004DF21A6001F09EFE01214DF21B6001F099
:1055000099FE02214DF21C6001F094FE34214DF20F
:105510001D6001F08FFE02214DF21E6001F08AFE37
:1055200067214DF21F6001F085FE02214DF22060DF
:1055300001F080FE84214DF2216001F07BFE02210A
:105540004DF2226001F076FEA4214DF2236001F0BD
:1055500071FE02214DF2246001F06CFEB7214DF284
:10556000256001F067FE02214DF2266001F062FE27
:10557000CF214DF2276001F05DFE02214DF228603F
:1055800001F058FEDE214DF2296001F053FE0221A8
:105590004DF22A6001F04EFEF2214DF22B6001F037
:1055A00049FE02214DF22C6001F044FEFE214DF235
:1055B0002D6001F03FFE03214DF22E6001F03AFE16
:1055C00010214DF22F6001F035FE03214DF23060C5
:1055D00001F030FE33214DF2316001F02BFE03214A
:1055E0004DF2326001F026FE6D214DF2336001F084
:1055F00021FE55214FF4704001F01CFEAA214FF20C
:10560000010001F017FE52214FF2020001F012FEDC
:1056100008214FF2030001F00DFE00214FF20400BB
:1056200001F008FECC214FF4314001F003FE0021CF
:105630004BF2011001F0FEFD05214FF4364001F060
:10564000F9FD70214FF4374001F0F4FD70214BF269
:10565000017001F0EFFD01214FF4384001F0EAFD47
:1056600003214BF6010001F0E5FD03214BF602009A
:1056700001F0E0FD03214BF6030001F0DBFD022108
:105680004FF43C4001F0D6FD00214BF6014001F003
:10569000D1FD00214BF6024001F0CCFDD0214FF4AA
:1056A000494001F0C7FD02214CF6011001F0C2FD96
:1056B00050214CF6021001F0BDFD50214CF60310B4
:1056C00001F0B8FD50214CF6041001F0B3FD0021AB
:1056D0004FF4545001F0AEFD55214FF4685001F0E5
:1056E000A9FD4FF4885001F08FFD782004F076F981
:1056F0004FF4245001F088FD01F05EB9FE48808827
:1057000049F2253188427DD147F6F001E52001F0CC
:1057100091FD4FF48071012001F08CFD4FF4E061A8
:10572000022001F087FD41F23001032001F082FDEB
:105730000021042001F07EFD40F20221082001F04A
:1057400079FD0021092001F075FD00210A2001F0FA
:1057500071FD00210C2001F06DFD00210D2001F0F4
:1057600069FD00210F2001F065FD0021102001F0EE
:1057700061FD0721112001F05DFD0021122001F0E3
:1057800059FD0021132001F055FD0021072001F0F3
:1057900051FD41F29061102001F04CFD40F22721B3
:1057A000112001F047FD9D21122001F043FD4FF42F
:1057B000C851132001F03EFD2521292001F03AFDBA
:1057C0000D212B2001F036FD0721302001F032FDA4
:1057D00040F20331312001F02DFD0321322001F090
:1057E00029FD40F20621352001F024FD0821362054
:1057F00001F020FD40F20641372001F01BFD4FF47F
:10580000417100E058E0382001F014FD07213920F3
:1058100001F010FD40F202613C2001F00BFD082177
:105820003D2001F007FD0021502001F003FDEF2194
:10583000512001F0FFFC0021522001F0FBFC40F25E
:105840003F11532001F0F6FC4FF42741602001F096
:10585000F1FC0121612001F0EDFC00216A2001F042
:10586000E9FC0021802001F0E5FC0021812001F00D
:10587000E1FC0021822001F0DDFC0021832001F009
:10588000D9FC0021842001F0D5FC0021852001F005
:10589000D1FC1021902001F0CDFC4FF4C06192208A
:1058A00001F0C8FC40F23311072001F0C3FC2221B3
:1058B000002001F0BFFC1FE78F48808849F22831A3
:1058C00088427DD141F28F01EC2001F0B3FC41F21E
:1058D0003421EF2001F0AEFC4FF48071012001F083
:1058E000A9FC4FF4E061022001F0A4FC41F2300178
:1058F000032001F09FFC0021042001F09BFC40F2FA
:105900000221082001F096FC0021092001F092FC00
:1059100000210A2001F08EFC01210C2001F08AFCFC
:1059200000210D2001F086FC00210F2001F082FCF7
:105930000021102001F07EFC0721112001F07AFCEB
:105940000021122001F076FC0021132001F072FCEE
:105950000121072001F06EFC322004F023F841F20F
:105960009041102001F066FC40F22721112001F047
:1059700061FC322004F016F88A21122001F05AFC52
:10598000322004F00FF84FF4D051132001F052FCF4
:105990000621292001F04EFC0D212B2001F04AFCAC
:1059A000322003F0FFFF0021202001F043FC002102
:1059B000212001F03FFC322003F0F4FF002100E041
:1059C00075E0302001F036FC40F20461312001F036
:1059D00031FC40F20531322001F02CFC0021352051
:1059E00001F028FC40F60941362001F023FC4FF479
:1059F0000171372001F01EFC40F20131382001F026
:105A000019FC40F20771392001F014FC00213C2000
:105A100001F010FC40F60A213D2001F00BFC322081
:105A200003F0C0FF0021502001F004FCEF215120C1
:105A300001F000FC0021522001F0FCFB40F23F117C
:105A4000532001F0F7FB4FF42741602001F0F2FBF7
:105A50000121612001F0EEFB00216A2001F0EAFB48
:105A60000021802001F0E6FB0021812001F0E2FB13
:105A70000021822001F0DEFB0021832001F0DAFB0F
:105A80000021842001F0D6FB0021852001F0D2FB0B
:105A90001021902001F0CEFB4FF4C061922001F064
:105AA000C9FB40F23311072001F0C4FB24E6124881
:105AB000808849F2203188427ED10021084601F0D9
:105AC000B9FB4FF48071012001F0B4FB4FF4E061A9
:105AD000022001F0AFFB41F23001032001F0AAFBEC
